:1000000000E00FBF01E004B901E005B934E10E944E
:100010004B0000E005B934E10E944B0001E005B956
:1000200034E10E944B0000E005B934E10E944B002E
:1000300001E005B934E10E944B0000E005B93CE362
:100040000E944B0001E005B934E10E944B0000E042
:1000500005B934E10E944B0001E005B93CE30E9480
:100060004B0000E005B93CE30E944B0001E005B9FC
:1000700034E10E944B0000E005B934E10E944B00DE
:1000800001E005B93CE30E944B0000E005B93CE308
:100090000E944B00B9CF1FEF2EE700001A951030D9
:1000A000E1F71FEF2A952030C1F72EE73A9530305F
:0400B000A1F7089517
:00000001FF
