:1000000000E00FBF0FE004B900EF0AB94FE151EA79
:1000100069E10E940C00FACF7FE3762375B97BB9C2
:100020000E943D000E944D000E943D000E943D0044
:10003000842F78EF872385B98BB90E943D005695B0
:10004000569556955695569575E8572B55B95BB903
:100050000E943D000E944D000E943D000E943D0014
:1000600077E0742375B97BB90E943D000E944D0072
:100070000E943D000E943D00089539E12FEF1FEFDF
:1000800000001A951030E1F71FEF2A952030C1F7D4
:100090002FEF3A953030A1F7089590E095B99BB9CC
:0200A0000895C1
:00000001FF
