:1000000000E00FBF0FE004B900EF0AB901E84FE0CC
:1000100050EF05B90BB90E9439000E943900402306
:1000200045B94BB90E9439000E943900440F440F72
:10003000440F440F45B94BB90E9439000E94390062
:10004000502355B95BB90E9439000E94390056957A
:1000500056955695569555B95BB90E9439000E9440
:100060003900452B45B94BB90E9439000E9439002F
:10007000CDCF39E12FEF1FEF00001A951030E1F7D7
:100080001FEF2A952030C1F72FEF3A953030A1F7B6
:020090000895D1
:00000001FF
